:100000000A128A11EC2FFF1B0D2883137F18831708
:100010000008840A0319FF0A080000308A00040857
:10002000840A82070034543469346C3474343A34AA
:1000300020342534733420342C342034443469344F
:100040007334743461346E34633465343A34203438
:10005000253464342C342034253473340A34003489
:1000600020342034203420342034203420342034F0
:1000700020342034203420342034203420342034E0
:1000800000344C346534763465346C343A3420347E
:1000900048346934673468342034203420340034E0
:1000A0004C346534763465346C343A3420344E3410
:1000B0006F3472346D3461346C3420340034543411
:1000C00069346C3474343A3420344F3470346534C9
:1000D0006E346534643420340034543469346C3400
:1000E00074343A34203443346C346F3473346534AC
:1000F0006434203400344F34703465346E346534E5
:100100006434003443346C346F3473346534643491
:020110000034B9
:10052E0008000800831203130610080064008001FF
:10053E00840A04060319003404069E2A1F3083160B
:10054E0003139900181598168312031398170800B1
:10055E00F00083160313981CB52AB62AB02A700829
:10056E008312031399000800031083120313061954
:10057E000314003003180130F200F3017208F0008A
:10058E007308F1000800F71BCD2ACE2ACF2ADA2AEB
:10059E007609F8007709F900F80A0319F90A7808BC
:1005AE00F6007908F7000800E62A710884000008B2
:1005BE000A128A11AF220A128A110130F10771084C
:1005CE00840083130008031DED2AEE2ADC2A08009E
:1005DE00F2007208831203138800071087100715A4
:1005EE002130F1007630F000F00BFB2AF10BFB2AE4
:1005FE0000008312031307110800F2007208831221
:10060E00031388000714871007152130F100763088
:10061E00F000F00B102BF10B102B000083120313C4
:10062E000711080038300A128A11EF220A128A11B5
:10063E0006300A128A11EF220A128A110C300A129F
:10064E008A11EF220A128A1101300A128A11EF2240
:10065E000A128A110800363083120313BD003408C3
:10066E00BE000030BF00C001C101C701C8013E304D
:10067E00B0000030B1003508B2003D30B3000A12B0
:10068E008A1155230A128A11831203134008340764
:10069E00BC003C08840083138001080083120313FE
:1006AE003208FD006B2B831203133008A0003108B3
:1006BE00A1007D30A2003308A3000030A4000A126E
:1006CE008A1171260A128A117D0884000A128A1173
:1006DE000D200A128A11003A031D762B772B5A2B06
:1006EE0083120313B001B1010800F601912B7608B5
:1006FE007307840074080318740AFF000A128A1123
:10070E0003200A128A110A128A1104230A128A116C
:10071E000130F607750876020318962B972BAA2B35
:10072E0076087307840074080318740A831203137F
:10073E00FF000A128A1103200A128A11003A031DC1
:10074E00A92BAA2B7E2B080083120313061410303C
:10075E00F900F90BB02B0000831203130610861C50
:10076E00B92BBA2BB62B8F018E011012901290114D
:10077E00901010148618C42BC52BC12B10100F0807
:10078E00FB000E08FA002630F0000130F1007B0865
:10079E00F3007A08F2000A128A11E0230A128A1173
:1007AE007108FD007008FC007D08F8007C08F70059
:1007BE000800F401F501700871040319E72BE82B0A
:1007CE001D2C0130F600F42B01300310F00DF10D4D
:1007DE00FF3E031DEC2B0130F607F11FF72BF82B14
:1007EE00EB2B01300310F40DF50DFF3E031DF92B1D
:1007FE0071087302031D052C70087202031C082C6D
:10080E00092C102C7008F2027108031CF303F3027A
:10081E00741401300310F10CF00CFF3E031D112C6B
:10082E000130F602031D1C2C1D2CF82B7508F1004F
:10083E007408F0000800F501F31F262C272C2E2C2F
:10084E00F209F309F20A0319F30A0130F500F11F58
:10085E00312C322C372CF009F109F00A0319F10A68
:10086E007008710403193C2C3D2C6A2C0130F400E5
:10087E00492C01300310F00DF10DFF3E031D412CEC
:10088E000130F407F11F4C2C4D2C402C71087302D3
:10089E00031D532C70087202031C562C572C5D2C12
:1008AE007008F2027108031CF303F3020130031007
:1008BE00F10CF00CFF3E031D5E2C0130F402031D03
:1008CE00692C6A2C4D2C750803196E2C6F2C742C08
:1008DE00F209F309F20A0319F30A7308F100720818
:1008EE00F0000800F501F11F7D2C7E2C852CF009FF
:1008FE00F109F00A0319F10A0130F500F31F882CF3
:10090E00892C902CF209F309F20A0319F30A01302B
:10091E00F506F601F701700871040319972C982C4F
:10092E00CD2C0130F400A42C01300310F00DF10D8C
:10093E00FF3E031D9C2C0130F407F11FA72CA82CA1
:10094E009B2C01300310F60DF70DFF3E031DA92C55
:10095E0071087302031DB52C70087202031CB82CAB
:10096E00B92CC02C7008F2027108031CF303F302B9
:10097E00761401300310F10CF00CFF3E031DC12C58
:10098E000130F402031DCC2CCD2CA82C75080319B4
:10099E00D12CD22CD72CF609F709F60A0319F70A2F
:1009AE007708F1007608F000080072087304031946
:1009BE00E12CE22CE82C72087304031DE72CE82CC2
:1009CE00EF2C70080A128A1198220A128A11752DBC
:1009DE007208093EF40073080318013E003EF5004C
:1009EE00740884008317751C83130008F600840AAC
:1009FE000008F700760877040319062D072D392D08
:100A0E007208093EF40073080318013E003EF5001B
:100A1E00740884008317751C83130008F600840A7B
:100A2E000008F7007208023EF80073080318013E32
:100A3E00003EF900780884008317791C83130008A0
:100A4E00FA00840A0008FB007B08803AFC00770855
:100A5E00803A7C02031D352D76087A020318382D54
:100A6E00392D752D720884008317731C83130008AB
:100A7E00F400840A0008F5007208023EF6007308BE
:100A8E000318013E003EF700760884008317771C9A
:100A9E00831300087407F9007508F8000318F80AA4
:100AAE00801F5A2DF8037808FA00790884008317FE
:100ABE007A1C8313700880007208023EF4007308DB
:100ACE000318013E003EF500740884008317751C60
:100ADE00831301308007840A0318800A08008316E6
:100AEE00031306108614061588018701071387174E
:100AFE000A128A1119230A128A110A128A119922CC
:100B0E000A128A110A128A1197220A128A110A12DD
:100B1E008A11A5220A128A110A128A11BB220A12FE
:100B2E008A117008710403199D2D9E2DAA2D4C302B
:100B3E0083120313B4004D30B5000A128A1132230A
:100B4E000A128A11B52D4C3083120313B4005B3098
:100B5E00B5000A128A1132230A128A110A128A1158
:100B6E00BB220A128A1170087104031DBF2DC02DFD
:100B7E00C52D703083120313ED00C92D6930831219
:100B8E000313ED006D08EC000A128A11AB230A1252
:100B9E008A11780883120313EF007708EE006F08AE
:100BAE00803AFF0080307F02031DDF2D1E306E0263
:100BBE000318E22DE32DEF2D5C3083120313B400E6
:100BCE002F30B5000A128A1132230A128A11FA2D19
:100BDE005C3083120313B4003E30B5000A128A1142
:100BEE0032230A128A1180300A128A11EF220A1257
:100BFE008A111E30F3008030F4001030F5000A1216
:100C0E008A117C230A128A1180300A128A11EF226D
:100C1E000A128A115C30F3000030F4001030F50037
:100C2E000A128A117C230A128A11C0300A128A1102
:100C3E00EF220A128A111E30F3008030F4001030B9
:100C4E00F5000A128A117C230A128A11C0300A1288
:100C5E008A11EF220A128A114C30F3000030F40090
:100C6E001030F5000A128A117C230A128A11A03064
:100C7E0083120313B4000130B5006C08B6000030C7
:100C8E00031D8030B7006F08B9006E08B8005C30E5
:100C9E00BA000030BB000A128A1132230A128A11DE
:100CAE00A030F1000A128A11DB220A128A110D30CD
:100CBE0083120313CB00AF30CA00B530C900C90B85
:100CCE00662ECA0B662ECB0B662E6D2E932D0A1238
:100CDE008A1100288312031322088400000884005E
:100CEE000A128A110D200A128A11253A031D802E2E
:100CFE00812ED22F22088400013080078316031321
:100D0E00E001E1010030E400FF30E200FF30E300DB
:100D1E0083120313220884000008AA002A08840004
:100D2E000A128A110D200A128A11643A0319A02E92
:100D3E00A12EAD2E2A0884000A128A110D200A1245
:100D4E008A11693A031DAC2EAD2E3D2F2308840067
:100D5E008317241C83130008FF00023080077F08CE
:100D6E00840083130008AB00840A0008AC0022083C
:100D7E0084002A08013E80002030AF00AC1BC82E34
:100D8E00CA2E0130CB2E0030A9000130AF022F0841
:100D9E00903E84000A30F0000030F1002C08F30081
:100DAE002B08F2000A128A1122240A128A117108E3
:100DBE00F7007008F6000A128A11CA220A128A1166
:100DCE007608303E831780000A30F0000030F100C4
:100DDE00831203132C08F3002B08F2000A128A1157
:100DEE0079240A128A11710883120313AC00700859
:100DFE00AB002B082C040319052F062F0B2F2F08E1
:100E0E00031D0A2F0B2FCC2E2F0803190F2F102F77
:100E1E00362F29080319142F152F362F0130AF0244
:100E2E002F08903E84002D3083178000362F2F0818
:100E3E00903E840083170008A500A6012508F00047
:100E4E002608F1002008F2002108F3000A128A1188
:100E5E00DC240A128A11013083120313AF072030EB
:100E6E002F06031D3B2F3C2F1E2FEB2FA90122080F
:100E7E008400000884000A128A110D200A128A11B9
:100E8E00733A031D4B2F4C2F532F22088400013031
:100E9E0080070130A900842F2208840000088400F6
:100EAE000A128A110D200A128A116C3A031D602F44
:100EBE00612F842F220884000008013E84000A124C
:100ECE008A110D200A128A116C3A031D6F2F702F92
:100EDE00842F220884000008023E84000A128A1120
:100EEE000D200A128A11733A031D7E2F7F2F842F35
:100EFE002208840003308007502F29080319882FF9
:100F0E00892FCB2F230884008317241C83130008FA
:100F1E00FF00023080077F08840083130008A700BB
:100F2E00840A00088403A800BC2F2808FF002708A5
:100F3E0084000A128A1103200A128A11A500A60142
:100F4E002508F0002608F1002008F2002108F30021
:100F5E000A128A11DC240A128A1101308312031339
:100F6E00A7070318A80A0030A8072808FF002708BB
:100F7E0084000A128A1103200A128A11003A031DF4
:100F8E00C92FCA2F9C2FEB2F831203132208840024
:100F9E0001308007EB2F22088400000884000A121B
:100FAE008A110D200A128A11A500A6012508F0004B
:100FBE002608F1002008F2002108F3000A128A1117
:100FCE00DC240A128A11CB2F080083160313E001CA
:100FDE00E101E201E301E401831790308400B030B7
:100FEE000A128A119D220A128A1183010A128A118B
:020FFE00762D4E
:02400E00723FFF
:00000001FF
